:100000000C9438000C9455000C9455000C94550039
:100010000C9455000C9455000C9455000C9455000C
:100020000C9455000C9455000C9455000C945500FC
:100030000C9455000C9455000C9455000C945500EC
:100040000C9455000C9455000C9455000C945500DC
:100050000C9455000C9455000C9455000C945500CC
:100060000C9455000C9455000C9455000C945500BC
:1000700011241FBECFEFD4E0DEBFCDBF11E0A0E062
:10008000B1E0E2EBF7E002C005900D92A430B107B9
:10009000D9F711E0A4E0B1E001C01D92A830B1078A
:1000A000E1F70E9457000C94D7030C9400000E94C3
:1000B000EA0088E893E120E931E0F9013197F1F7AE
:1000C0000197D9F788E893E1F8CF0E947E0391E089
:1000D000882309F490E0892F0895FC0180E1DF0175
:1000E0001D928A95E9F70895BF92CF92DF92EF9221
:1000F000FF920F931F93DF93CF930F92CDB7DEB78D
:100100006C010E94B6037C018E010F5F1F4FC80176
:100110000E94CF02B82EC7010E94BF0321E0893C94
:10012000910508F420E08B2D823019F4222379F315
:100130000CC0222349F48981B6010E94A60289815C
:100140000E94C90280E001C082E00F90CF91DF9150
:100150001F910F91FF90EF90DF90CF90BF90089587
:10016000DF93CF9300D0CDB7DEB7BC0189837A830C
:100170000E94AD0169817A8180FF06C081E60E94FC
:1001800047028CE261E007C081FF0AC081E70E945C
:1001900047028CE262E040E00E948E0180E001C0F4
:1001A00084E00F900F90CF91DF9108950E94AD01F0
:1001B00090E083709070009711F083E0089584E0E0
:1001C00008958DE20E940D01887F11F085E0089569
:1001D00080E00895BF9ABD9ABB9ABE9880E58DB91C
:1001E00008958FB9779BFECF8FB1089580E00E946C
:1001F000F1000895C3980E94F1000E94F600C39A8E
:100200000895C39880EC0E94F100C39A64E278E6F6
:1002100080E090E00E94CA0308951F93182FC398AE
:1002200083E00E94F100812F0E94F1000E94F600FD
:10023000C39A1F910895CF92DF92FF920F931F935D
:10024000DF93CF930F92CDB7DEB7182F062FF42E82
:10025000C39883E079830E94F100812F0E94F1000E
:100260007981402F572F6A0105C00E94F600F601E0
:1002700081936F018C2D801B8F15B8F3C39A0F905B
:10028000CF91DF911F910F91FF90DF90CF90089554
:100290001F93DF93CF930F92CDB7DEB7182FC3987C
:1002A00082E069830E94F100812F0E94F100698140
:1002B000862F0E94F100C39A0F90CF91DF911F917A
:1002C0000895CF92DF92FF920F931F93DF93CF9306
:1002D0000F92CDB7DEB7182F062FF42EC39882E009
:1002E00079830E94F100812F0E94F1007981402FD3
:1002F000572F6A0105C0F60181916F010E94F1003C
:100300008C2D801B8F15B8F3C39A0F90CF91DF917E
:100310001F910F91FF90DF90CF9008951F93DF936F
:10032000CF9300D0CDB7DEB7182FC39885E04A83AE
:1003300069830E94F100812F0E94F1006981862F5C
:100340000E94F1004A81842F0E94F100C39A0F900D
:100350000F90CF91DF911F91089580EA0E94FA00DB
:10036000089580EB0E94FA0008951F93182F8FE0E4
:1003700060EE412F0E948E018FE00E940D01982FA8
:10038000907E81E0911709F480E01F9108950F930A
:100390001F93813031F08230A1F412E009E861E06E
:1003A00003C017E00AEB64E08AE20E94480189E298
:1003B000602F0E94480188E2612F0E94480180E07E
:1003C00001C081E01F910F910895EF92FF920F936A
:1003D0001F93DF93CF9300D000D0CDB7DEB77B0162
:1003E0008A01FB011082FA011082118212821382AB
:1003F000BE016F5F7F4F44E00E941B016A81862F20
:10040000829586958770298130E0E3E0220F331FC3
:10041000EA95E1F7280F311D442737FD4095542F09
:10042000F801208331834283538363FF25C09B817E
:1004300080E0AA2797FDA095BA2F7C81870F911D98
:10044000A11DB11D72E0220F331F441F551F7A9565
:10045000D1F76370260F311D411D511DA9013327AE
:100460002227820F931FA41FB51F80839183A2832D
:10047000B38381E0F70180830F900F900F900F906E
:10048000CF91DF911F910F91FF90EF9008950F93FF
:100490001F93CF93DF93182FEB01AB014F5F5F4F9B
:1004A0000E94E501812F81500E940D01082F812FAC
:1004B0008C5F0E940D018D8303FF03C091E09E8736
:1004C00001C01E86482F4F704D83BE016A5F7F4F6B
:1004D000812F8B5F0E941B01DF91CF911F910F91A4
:1004E0000895DF93CF9300D000D0CDB7DEB7F901E8
:1004F000613099F42C83FB839A01942F9C71990F9E
:10050000990F990F4370940F98609A83A5E03695E0
:100510002795AA95E1F729830CC0F3E03695279536
:10052000FA95E1F72983E295EE0FE07EEA831C82DB
:100530001B82BE016F5F7F4F44E00E9461010F90FC
:100540000F900F900F90CF91DF9108950F931F930D
:10055000CF93DF93082FEB011D816A5F7F4F8B5F85
:10056000412F0E94610129813A814B815C81802F5A
:1005700068810E9471028E85813009F41064802F99
:100580008C5F612F0E944801DF91CF911F910F91E5
:100590000895815068E048E00E948E010895BF925E
:1005A000CF92DF92EF92FF920F931F93DF93CF933F
:1005B00000D00F92CDB7DEB77C01DE011196E1E0ED
:1005C000F1E083E001900D928150E1F7F701108294
:1005D0008E010F5F1F4FB4E0CB2ED12CCC0EDD1E51
:1005E000F801B1908F018B2D0E940D0183FD05C094
:1005F000B394F701B08280E004C00C151D0581F7AB
:1006000082E00F900F900F90CF91DF911F910F918B
:10061000FF90EF90DF90CF90BF9008951F9380E2FE
:1006200060E020E030E040E050E00E94710284E2AF
:1006300060E020E030E040E050E00E94710280E0A5
:1006400061E020E030E040E050E00E94710284E090
:1006500060E020E030E040E050E00E94710288E07D
:1006600061E020E030E040E050E00E94710280E173
:1006700060E020E030E040E050E00E94710284E160
:1006800060E020E030E040E050E00E94710288E14C
:1006900060E020E030E040E050E00E94710210E3B2
:1006A000812F60E00E944801812F805F60E00E94FE
:1006B0004801812F805E60E00E9448011F5F1E3369
:1006C00079F780E660E00E94480180E760E00E94E0
:1006D00048011F9108958FE00E940D01682F606806
:1006E0006F798FE00E9448018FE00E940D01982FE2
:1006F000907E81E0903809F480E008951F93DF93A5
:10070000CF930F92CDB7DEB789830E940101C398C2
:1007100089810E94C701182F882361F40E940E036B
:1007200080E664E644E00E948E0180E760E640E0F7
:100730000E948E01C39A28EE33E040E951E0FA01AD
:100740003197F1F721503040D1F7812F0F90CF91A1
:10075000DF911F91089583E083BF86E082BF88B751
:10076000826088BF89B7826089BF08958FB7F89487
:1007700020910601309107018FBFC90108954FB73D
:10078000F89420910601309107014FBF281B390BC7
:10079000C9010895DC01CB0181159105A105B105C1
:1007A00029F081509040A040B040D9F70895F894C6
:0207B000FFCF79
:0407B2000130405082
:00000001FF
