:100000000C9434000C9451000C9451000C94510049
:100010000C9451000C9451000C9451000C9451001C
:100020000C9451000C9451000C9451000C9451000C
:100030000C9451000C9451000C9451000C945100FC
:100040000C9451000C9451000C9451000C945100EC
:100050000C9451000C9451000C9451000C945100DC
:100060000C9451000C94510011241FBECFEFD4E02A
:10007000DEBFCDBF11E0A0E0B1E0E0EEF8E002C0ED
:1000800005900D92A430B107D9F711E0A4E0B1E0DA
:1000900001C01D92A830B107E1F70E9453000C94F3
:1000A0006E040C9400003F924F925F926F927F9289
:1000B0008F929F92AF92BF92CF92DF92EF92FF9278
:1000C0000F931F93DF93CF93CDB7DEB760970FB633
:1000D000F894DEBF0FBECDBF8AB184618AB95A9849
:1000E0005C980E948E0182E00E9489018823A1F021
:1000F00020E335E764E040E951E005C0CA0101971B
:10010000F1F72150304021153105C1F78BB1862719
:100110008BB920E335E7F2CF80E00E940104882309
:10012000A1F020E137E264E040E951E005C0CA01F6
:100130000197F1F72150304021153105C1F78BB1FE
:1001400086278BB920E137E2F2CF50E1352E00E966
:1001500011E05E010894A11CB11C47E0642E712CD3
:100160006C0E7D1E3FE0832E912C8C0E9D1E23E095
:10017000422E9CECC92E95E5D92EE12CF12C84E081
:10018000582E8BB183258BB988E893E1F80131971C
:10019000F1F70197D9F7C5010E948201F30111928D
:1001A000E815F905E1F74F82CA82DB82EC82FD8215
:1001B000C5010E944501882301F1809104019091BD
:1001C0000501019690930501809304010197A9F41C
:1001D00020E030E08BB185258BB988EE93E0F80103
:1001E0003197F1F70197D9F72F5F3F4F2A3031054B
:1001F00089F710920501109204010E9414018823CE
:1002000009F4BFCF20E030E08BB185258BB988E8B9
:1002100093E1F8013197F1F70197D9F72F5F3F4F3D
:100220002430310589F7ADCF8DE20E947703887FB6
:1002300009F085E008950E94EB0290E083709070D1
:10024000892B11F484E0089583E00895CF93DF9320
:10025000EC010E94EB0280FF07C081E6BE010E9414
:10026000D8038CE261E00AC081FD02C084E00AC0CC
:1002700081E7BE010E94D8038CE262E040E00E9468
:10028000A70180E0DF91CF910895AF92BF92CF9206
:10029000DF92FF920F931F93DF93CF930F92CDB70F
:1002A000DEB76C010E944D048C015E010894A11C14
:1002B000B11CC5010E949803F82EC8010E94560483
:1002C00020E0893C910508F021E082E0F81619F45D
:1002D000222379F30BC0222349F48981B6010E94BD
:1002E0009B0289810E94BF0180E001C082E00F90E3
:1002F000CF91DF911F910F91FF90DF90CF90BF9032
:10030000AF900895FC0180E1DF011D928A95E9F725
:1003100008950E941E04811181E00895259A239A70
:10032000229A2D982B982A9A8CB580618CBD8CB519
:1003300080648CBD08958EBD0DB407FEFDCF8EB5D3
:1003400008951EBC0DB407FEFDCF8EB50895FF9233
:100350000F931F93182F062FF42E2A9885E00E94E2
:100360009B01812F0E949B01802F0E949B018F2D5A
:100370000E949B012A9A1F910F91FF90089581502E
:1003800068E048E00E94A7010895EF92FF920F9362
:100390001F93CF93DF93182F062FF72EE42E2A9862
:1003A00082E00E949B01812F0E949B01202F3F2D04
:1003B000C901EC0110E004C089910E949B011F5FFC
:1003C0001E15D0F32A9ADF91CF911F910F91FF90C4
:1003D000EF900895DF93CF9300D000D0CDB7DEB774
:1003E000782FF9016130C9F42C83FB83CA01AA2755
:1003F000BB279C012C71307043E0220F331F4A95BC
:10040000E1F7482F4370420F48604A8335E09695E4
:1004100087953A95E1F7898311C0C90123E0969544
:1004200087952A95E1F78983E770F07085E0EE0FF4
:10043000FF1F8A95E1F7EA831C821B82872FBE018A
:100440006F5F7F4F44E00E94C5010F900F900F90A7
:100450000F90CF91DF9108950F931F93182F062FC0
:100460002A9882E00E949B01812F0E949B01802F8D
:100470000E949B012A9A1F910F9108951F9380E279
:1004800060E020E030E040E050E00E94EA0184E2D9
:1004900060E020E030E040E050E00E94EA0180E0CF
:1004A00061E020E030E040E050E00E94EA0184E0BA
:1004B00060E020E030E040E050E00E94EA0188E0A7
:1004C00061E020E030E040E050E00E94EA0180E19D
:1004D00060E020E030E040E050E00E94EA0184E18A
:1004E00060E020E030E040E050E00E94EA0188E176
:1004F00060E020E030E040E050E00E94EA0110E3DC
:10050000812F60E00E942C02812F805F60E00E94BA
:100510002C02812F805E60E00E942C021F5F1E3340
:1005200079F780E660E00E942C0280E760E00E949C
:100530002C021F910895EF92FF920F931F93E82EC4
:100540008B01FB01F5806A5F7F4F8B5F4F2D0E940F
:10055000C501F80121813281438154818E2D608152
:100560000E94EA01F8018685813011F4F0E4FF2A47
:100570008E2D8C5F6F2D0E942C021F910F91FF908A
:10058000EF9008950F931F93813021F0823031F066
:1005900081E013C064E01AEB07E003C061E019E8F2
:1005A00002E08AE20E942C0289E2612F0E942C0262
:1005B00088E2602F0E942C0280E01F910F91089525
:1005C0002A980E949B010E94A1012A9A089580EB1B
:1005D0000E94E002089580EA0E94E0020895EF92EE
:1005E000FF920F931F93CF93DF93182F062FF72EB1
:1005F000E42E2A9883E00E949B01812F0E949B0198
:10060000202F3F2DC901EC0110E004C00E94A10180
:1006100089931F5F1E15D0F32A9ADF91CF911F9106
:100620000F91FF90EF900895EF92FF920F931F9319
:10063000DF93CF9300D000D0CDB7DEB77B018A0126
:10064000FB011082FA011082118212821382BE0114
:100650006F5F7F4F44E00E94EF023A81232F229583
:1006600026952770898190E043E0880F991F4A956D
:10067000E1F7820F911DAC01662757FD6095762F3B
:10068000F801408351836283738333FF25C0B2E056
:10069000440F551F661F771FBA95D1F73370430F6C
:1006A000511D611D711DBA01552744279B8180E0B2
:1006B000AA2797FDA095BA2F2C81820F911DA11D0D
:1006C000B11D840F951FA61FB71F80839183A2833E
:1006D000B38381E0F70180830F900F900F900F900C
:1006E000CF91DF911F910F91FF90EF9008951F938D
:1006F000182F2A9883E00E949B01812F0E949B0162
:100700000E94A1012A9A1F9108958FE00E94770309
:10071000682F60686F798FE00E942C028FE00E9442
:10072000770390E0807E803809F091E0892F08956A
:10073000AF92BF92CF92DF92FF920F931F93DF93FE
:10074000CF9300D00F92CDB7DEB76C01DE011196CA
:10075000E1E0F1E083E001900D928150E1F7F601D4
:1007600010828E010F5F1F4F54E0A52EB12CAC0EEE
:10077000BD1EF801F0808F2D0E94770383FD05C018
:10078000F394F601F08280E006C00F5F1F4F0A1558
:100790001B0579F782E00F900F900F90CF91DF91BA
:1007A0001F910F91FF90DF90CF90BF90AF90089571
:1007B0000F931F93CF93DF93082FEB01AB014F5F94
:1007C0005F4F0E941403802F81500E947703182FDF
:1007D000802F8C5F0E9477038D8313FF03C081E01D
:1007E0008E8701C01E864D814F704D832696802FC7
:1007F0008B5FBE010E94EF02DF91CF911F910F919D
:1008000008951F93182F8FE060EE412F0E94A701DB
:100810008FE00E94770390E0807E811391E0892F22
:100820001F9108952A9880EC0E949B012A9A64E205
:1008300078E680E090E00E94610408951F93182FED
:100840000E9412042A98812F0E94C202182F882326
:1008500061F40E943E0280E664E644E00E94A70143
:1008600080E760E640E00E94A7012A9A88EE93E0C4
:1008700020E931E0F9013197F1F70197D9F7812F9C
:100880001F91089583E083BF86E082BF88B78160AF
:1008900088BF89B7816089BF08958FB7F894209188
:1008A0000601309107018FBFC90108954FB7F89431
:1008B00020910601309107014FBF281B390BC90158
:1008C0000895DC01CB0181159105A105B10529F041
:1008D00081509040A040B040D9F70895F894FFCFE0
:0408E0000130405053
:00000001FF
