:100000000C9438000C9455000C9455000C94550039
:100010000C9455000C9455000C9455000C9455000C
:100020000C9455000C9455000C9455000C945500FC
:100030000C9455000C9455000C9455000C945500EC
:100040000C9455000C9455000C9455000C945500DC
:100050000C9455000C9455000C9455000C945500CC
:100060000C9455000C9455000C9455000C945500BC
:1000700011241FBECFEFD4E0DEBFCDBF11E0A0E062
:10008000B1E0E4EEF0E002C005900D92A030B107BF
:10009000D9F711E0A0E0B1E001C01D92A030B10796
:1000A000E1F70E945E000C9470000C940000BF9A6F
:1000B000BD9ABB9ABE9880E58DB90895BF9ABD9A46
:1000C000BB9ABE9880E58DB988EE93E020E931E0D7
:1000D000F9013197F1F70197D9F788EE93E0F8CF5E
:0400E000F894FFCFC2
:00000001FF
