:100000000C9434000C9451000C9451000C94510049
:100010000C9451000C9451000C9451000C9451001C
:100020000C9451000C9451000C9451000C9451000C
:100030000C9451000C9451000C9451000C945100FC
:100040000C9451000C9451000C9451000C945100EC
:100050000C9451000C9451000C9451000C945100DC
:100060000C9451000C94510011241FBECFEFD4E02A
:10007000DEBFCDBF11E0A0E0B1E0EEEDF0E002C0E8
:1000800005900D92A030B107D9F711E0A0E0B1E0E2
:1000900001C01D92A030B107E1F70E9460000C94EE
:1000A0006D000C940000259A239A229A249881E5E9
:1000B0008CBD08958EBD0DB407FEFDCF8EB508959D
:1000C000259A239A229A249881E58CBD87EE8EBDCD
:0E00D0000DB407FEFDCF9EB5FACFF894FFCF1A
:00000001FF
